:100000000C94D1000C94EE000C94EE000C94FE01C4
:100010000C94EE000C94EE000C94EE000C94EE00A8
:100020000C94EE000C94EE000C94EE000C94390B42
:100030000C94EE000C94EE000C94EE000C94EE0088
:100040000C94EE000C94EE000C949E0F0C94C90FCF
:100050000C94EE000C94D1010C94EE000C94EE0084
:100060000C94EE000C94EE005541525420467261FF
:100070006D65204572726F723A20005541525420CE
:100080004F76657272756E204572726F723A2000FB
:10009000427566666572206F766572666C6F772052
:1000A0006572726F723A200000407A10F35A00A015
:1000B000724E18090010A5D4E80000E87648170031
:1000C00000E40B54020000CA9A3B000000E1F50571
:1000D000000080969800000040420F000000A086BB
:1000E00001000000102700000000E80300000000ED
:1000F0006400000000000A00000000000100000091
:1001000000002C76D888DC674F0823DFC1DFAE59AA
:10011000E1B1B796E5E3E453C63AE651997696E83D
:10012000E6C28426EB898C9B62ED407C6FFCEFBCC1
:100130009C9F40F2BAA56FA5F490055A2AF75C93EC
:100140006B6CF9676DC11BFCE0E40D47FEF520E622
:10015000B500D0ED902E0300943577050080841E05
:10016000080000204E0A000000C80C333333330F60
:10017000986E12831141EF8D2114893BE65516CFFD
:10018000FEE6DB18D1844B381BF77C1D901DA4BB09
:10019000E424203284725E228100C9F124ECA1E5BE
:1001A0003D2711241FBECFEFD8E0DEBFCDBF14E046
:1001B000A0E0B1E0EAE9FDE202C005900D92A031B5
:1001C000B107D9F715E0A0E1B4E001C01D92AA3C47
:1001D000B107E1F70E9456100C94CB160C94000066
:1001E00045983D9A8EEA97E00197F1F73D9885EFA3
:1001F00090E00197F1F786B1E8EBF6E03197F1F77F
:100200008072089545983D9A95E09A95F1F781118D
:100210003D9885EF90E00197F1F73D980895459856
:100220003D9A85E08A95F1F73D988CE48A95F1F73F
:1002300086B195EF9A95F1F785FB882780F90895A7
:10024000CF93DF93D82FC9E005C08D2F81700E9416
:100250000201D695C150C9F7DF91CF910895CF9390
:10026000DF93D9E0C0E008C00E940F0120E8829F20
:10027000C0011124C695C82BD150B1F78C2FDF9146
:10028000CF910895CF92DF92EF92FF921F93CF9379
:10029000DF930E94F0008CEC0E94200184E40E9415
:1002A00020010E940F018823E1F30E94F0008CECF2
:1002B0000E9420018EEB0E9420010E942F01C82F76
:1002C0000E942F01182F0E94F0006C2F62956F7012
:1002D000CF70D0E0177020E1129FC0011124682B6D
:1002E000772767FD7095872F972F0E94C9116B01A3
:1002F0007C0181E792E0C89FB001C99F700DD89F33
:10030000700D112480E090E00E94C71127E137EBC7
:1003100041ED58E30E947D129B01AC01C701B6017B
:100320000E94CB10DF91CF911F91FF90EF90DF9053
:10033000CF9008958AB18C6F8AB98BB183708BB9D5
:1003400052985A9A2098289A87B1807F87B9089541
:1003500081E08093680080936B000895109289007B
:100360008FE380938800EFE6F0E0808182608083F5
:10037000E1E8F0E080818C60808308958FEA8093CB
:100380007A00EBE7F0E08081846080838FE08093E7
:100390007E00089584B5836884BD85B5816085BD80
:1003A00008951F920F920FB60F9211248F939F936F
:1003B000EF93FF9380913304E82FF0E09091790060
:1003C000EA53FA4F90838F5F843018F4809333049C
:1003D00002C01092330480913304805A80937C00D1
:1003E00080917A00806480937A00FF91EF919F91D1
:1003F0008F910F900FBE0F901F9018951F920F9224
:100400000FB60F9211248F939F93809134048F5FC6
:100410008093340490910C01913049F4883738F07E
:10042000809110018F5F80931001109234048091AD
:10043000180490911904019690931904809318045C
:100440009F918F910F900FBE0F901F9018958BB1B9
:1004500080588BB908955F9A80E090E30197F1F797
:100460005F980895282F30E002C0359527956A954A
:10047000E2F72170332781E02827C9010895CF933F
:10048000DF93CDB7DEB7C456D1090FB6F894DEBFFF
:100490000FBECDBF6DE370E00E94A313BC016F5F80
:1004A0007F4FCE0101960E94AE13CE0101960E94AD
:1004B0005713CC59DF4F0FB6F894DEBF0FBECDBF38
:1004C000DF91CF91089584E6E6EEF4E0A2E6B5E090
:1004D00001900D928A95E1F784E6E6EEF4E0DF0103
:1004E0001D928A95E9F70895EF92FF920F931F935B
:1004F0006E157F058007910730F0E1E0261737077A
:100500004807590708F4E0E08E2F1F910F91FF90E4
:10051000EF900895CF93DF93EC01CB01BA012AE06D
:1005200030E042E854E00E940514CE010E943C10E5
:1005300083EE93E00E943C1082E894E0DF91CF913B
:100540000C943C10CF93DF93EC01CB01BA012AE06D
:1005500030E042E854E00E94051482E894E00E94F2
:100560003C10CE01DF91CF910C943C1086E291E0DB
:100570000E943C1089E291E00C943C108CE291E0E6
:100580000E943C1089E291E00E943C108BE791E0D0
:100590000E943C1089E291E00E943C1081E991E0C8
:1005A0000E943C1089E291E00E943C1089E291E0B7
:1005B0000E943C108CEB91E00E943C1089E291E09B
:1005C0000E943C1086EE91E00E943C1089E291E08E
:1005D0000E943C1084E192E00E943C1089E291E08C
:1005E0000E943C108CE291E00C943C1080E190E081
:1005F0000C94F30F4AE050E062E874E0809111013E
:10060000909112010E94CF130E943C108DE20E9433
:1006100027104AE050E062E874E08091130190E016
:100620000E94CF130E943C108DE20E9427104AE0E6
:1006300050E062E874E08091140190E00E94CF13D2
:100640000E943C108DE492E00E943C1080910F01CA
:10065000811114C0809116018D3038F090E04AE08D
:1006600050E062E874E00C9710C0811107C04AE0C6
:1006700050E062E874E08CE090E007C04AE050E0AF
:1006800062E874E08091160190E00E94CF130E940E
:100690003C108AE30E9427104AE050E062E874E0D0
:1006A0008091150190E00E94CF130E943C108AE3D4
:1006B0000E942710809110014AE050E062E874E047
:1006C00090E00E94CF130E943C108CE20C94271003
:1006D0002091110130911201C90183709927892B52
:1006E00079F4C90164E670E00E94EC12892B51F4A0
:1006F000C90160E971E00E94EC1221E0892B19F038
:1007000020E001C021E0822F0895CF93DF93CDB781
:10071000DEB72D970FB6F894DEBF0FBECDBF8DE0CC
:10072000E7E1F1E0DE01119601900D928A95E1F783
:100730008B818C3131F40E946803882331F08DE184
:1007400003C08D3111F48CE18B83809110018C33C7
:1007500038F0809115018F5F809315011092100180
:10076000809115018C3338F0809116018F5F809352
:1007700016011092150180911601883138F0809190
:1007800014018F5F80931401109216018091130160
:10079000FE01E80FF11D209114019181921730F4B0
:1007A0008F5F8093130181E0809314018091130186
:1007B0008D3060F08091110190911201019690931B
:1007C00012018093110181E0809313012D960FB6E1
:1007D000F894DEBF0FBECDBFDF91CF910895CF93C8
:1007E000DF93D82FC62FFA01633010F4C45F31971E
:1007F0009F013695279536952795CF0160E971E0E1
:100800000E94EC12260F371F2E0F3F1FCF0164E608
:1008100070E00E94EC12261B370B4DE0C49FC00114
:100820001124039665E070E00E9400136D0F711DA6
:10083000260F371FC90167E070E00E94EC12DF91BC
:10084000CF9108950E9442019B01462F532F682F9C
:10085000792F40930601509307016093080170932C
:100860000901622F732F08958091C7058A3518F00A
:100870008091000102C08091010180931A0480914F
:100880001A0487BD08950F931F93CF93DF93682FAA
:10089000809110010E94E012911154C00AE415E009
:1008A000C0E0D0E0C530D10551F0F80184819581D8
:1008B000A681B78180839183A283B3830AC00E94FB
:1008C000220460935E0570935F05809360059093AA
:1008D000610521960C5F1F4FC630D10519F7CAE498
:1008E000D5E0F0E0E0E080E090E029913991499195
:1008F00059910F2F1E2FB8010E94CB10F62FE72F12
:1009000025E0C236D20789F7DF014B2F5A2F682F17
:10091000792F40931B0450931C0460931D04709323
:100920001E0420E030E040EC50E4EF016D2F7C2FFE
:100930000E943311609302017093030180930401BC
:1009400090930501DF91CF911F910F9108950F931F
:100950001F9380910E01813049F4609102017091E2
:100960000301809104019091050114C026E636E64A
:1009700046EE5FE3609102017091030180910401F2
:10098000909105010E947D1220E030E040E052E4A9
:100990000E94CB1002E814E023E04AE00E943613E4
:1009A000C8010E943C108CE21F910F910C942710FB
:1009B0000F931F936091120470911304809114049B
:1009C0009091150402E814E023E04AE00E943613F7
:1009D000C8010E943C108CE21F910F910C942710CB
:1009E00081E190E00E94321460932C0470932D04F6
:1009F00080932E0490932F0484E090E00E943214A0
:100A00006093230470932404809325049093260418
:100A100080E090E00E94321460931F0470932004E1
:100A2000809321049093220480E190E00E942A1494
:100A300080930F018FE090E00E942A148093290494
:100A40008EE090E00E942A14809328048DE090E0CC
:100A50000E942A14809327048CE090E00E942A14BC
:100A600080930E018BE090E00E942A1480930D0188
:100A70008AE090E00E942A1480930C0189E090E0C3
:100A80000E942A1480930B0188E090E00E942A14AF
:100A900080930A01089540912C0450912D04609197
:100AA0002E0470912F0481E190E00E944A1440913D
:100AB000230450912404609125047091260484E05D
:100AC00090E00E944A1440911F04509120046091CC
:100AD00021047091220480E090E00E944A14609109
:100AE0000F0180E190E00E943814609129048FE0AA
:100AF00090E00E943814609128048EE090E00E94FB
:100B00003814609127048DE090E00E9438146091C1
:100B10000E018CE090E00E94381460910D018BE092
:100B200090E00E94381460910C018AE090E00E94ED
:100B3000381460910B0189E090E00E9438146091B4
:100B40000A0188E090E00C943814CF92DF92EF9283
:100B5000FF920F931F9360E572E082E695E00E949A
:100B60007E13892B21F166E572E082E695E00E9412
:100B70007E13892B41F04091160150E060E070E057
:100B800088E592E0EDC16EE572E082E695E00E94B4
:100B90007E13892B09F49AC482E695E00E943F02F5
:100BA000683171058105910508F49AC48FC460E627
:100BB00072E082E695E00E947E13892B21F166E5C2
:100BC00072E082E695E00E947E13892B41F040910D
:100BD000150150E060E070E088E692E0C1C16EE58A
:100BE00072E082E695E00E947E13892B09F46EC4C0
:100BF00082E695E00E943F026C3371058105910504
:100C000008F475C463C460E772E082E695E00E9470
:100C10007E13892B21F166E572E082E695E00E9461
:100C20007E13892B41F04091100150E060E070E0AC
:100C300088E792E095C16EE572E082E695E00E9459
:100C40007E13892B09F442C482E695E00E943F029C
:100C50006C3371058105910508F450C437C460E810
:100C600072E082E695E00E947E13892B69F166E5C9
:100C700072E082E695E00E947E13892B59F0409144
:100C80002C0450912D0460912E0470912F0486E85D
:100C900092E066C16EE572E082E695E00E947E1306
:100CA000892B09F413C482E695E00E943F0282E694
:100CB00095E00E943F0260932C0470932D04809372
:100CC0002E0490932F0402C465E972E082E695E059
:100CD0000E947E13892B21F166E572E082E695E0A1
:100CE0000E947E13892B41F040910F0150E060E09B
:100CF00070E08DE992E034C16EE572E082E695E045
:100D00000E947E13892B09F4E1C382E695E00E94DC
:100D10003F02623071058105910508F0D7C3F5C324
:100D200066EA72E082E695E00E947E13892B29F143
:100D300066E572E082E695E00E947E13892B49F019
:100D4000409111015091120160E070E08BEA92E055
:100D500007C16EE572E082E695E00E947E13892B62
:100D600009F4B4C382E695E00E943F026E3D7940EB
:100D70008105910508F4D0C3A9C360EB72E082E657
:100D800095E00E947E13892B21F166E572E082E6F0
:100D900095E00E947E13892B41F04091130150E0B1
:100DA00060E070E086EB92E0DBC06EE572E082E628
:100DB00095E00E947E13892B09F488C382E695E0B2
:100DC0000E943F026D3071058105910508F4ADC3A5
:100DD0007DC36CEB72E082E695E00E947E13892B66
:100DE00021F166E572E082E695E00E947E13892B90
:100DF00041F04091140150E060E070E080EC92E03E
:100E0000AFC06EE572E082E695E00E947E13892B0A
:100E100009F45CC382E695E00E943F0260327105EE
:100E20008105910508F488C351C364EC72E082E641
:100E300095E00E947E13892B21F166E572E082E63F
:100E400095E00E947E13892B41F040910E0150E005
:100E500060E070E08CEC92E083C06EE572E082E6C8
:100E600095E00E947E13892B09F430C382E695E059
:100E70000E943F02623071058105910508F026C38A
:100E800062C364ED72E082E695E00E947E13892BD6
:100E900021F166E572E082E695E00E947E13892BDF
:100EA00041F040910D0150E060E070E08BED92E088
:100EB00057C06EE572E082E695E00E947E13892BB2
:100EC00009F404C382E695E00E943F026230710596
:100ED0008105910508F0FAC23DC363EE72E082E637
:100EE00095E00E947E13892B21F166E572E082E68F
:100EF00095E00E947E13892B41F040910C0150E057
:100F000060E070E08BEE92E02BC06EE572E082E66E
:100F100095E00E947E13892B09F4D8C282E695E001
:100F20000E943F02623071058105910508F0CEC232
:100F300018C364EF72E082E695E00E947E13892B6D
:100F400031F166E572E082E695E00E947E13892B1E
:100F500051F040910B0150E060E070E084EF92E0CE
:100F60000E948A02B3C26EE572E082E695E00E94BA
:100F70007E13892B09F4AAC282E695E00E943F0203
:100F8000623071058105910508F0A0C2F1C26FEFD2
:100F900072E082E695E00E947E13892B21F166E5DE
:100FA00072E082E695E00E947E13892B41F0409129
:100FB000290450E060E070E089E093E0D1CF6EE575
:100FC00072E082E695E00E947E13892B09F47EC2CE
:100FD00082E695E00E943F0262307105810591052D
:100FE00008F074C2CCC264E173E082E695E00E942E
:100FF0007E13892B21F166E572E082E695E00E947E
:101000007E13892B41F04091280450E060E070E0AD
:101010008DE193E0A5CF6EE572E082E695E00E9457
:101020007E13892B09F452C282E695E00E943F02AA
:10103000623071058105910508F048C2A7C267E2D8
:1010400073E082E695E00E947E13892B21F166E52C
:1010500072E082E695E00E947E13892B41F0409178
:10106000270450E060E070E080E393E079CF6EE524
:1010700072E082E695E00E947E13892B09F426C275
:1010800082E695E00E943F0262307105810591057C
:1010900008F01CC282C26AE373E082E695E00E9417
:1010A0007E13892B21F166E572E082E695E00E94CD
:1010B0007E13892B41F040910A0150E060E070E01E
:1010C00084E493E04DCF6EE572E082E695E00E9405
:1010D0007E13892B09F4FAC182E695E00E943F0253
:1010E000623071058105910508F0F0C15DC26FE4C1
:1010F00073E082E695E00E947E13892B39F166E564
:1011000072E082E695E00E947E13892B59F04091AF
:1011100023045091240460912504709126048FE5E6
:1011200093E01ECF6EE572E082E695E00E947E13AA
:10113000892B09F4CBC182E695E00E943F02673318
:1011400079408105910508F436C2C0C166E773E0B5
:1011500082E695E00E947E13892BD1F166E572E06C
:1011600082E695E00E947E13892B59F040911F047E
:1011700050912004609121047091220484E893E04E
:10118000EFCE6EE572E082E695E00E947E13892B39
:1011900009F49CC1C0902304D0902404E09025045D
:1011A000F09026048FEFC81AD80AE80AF80A82E6F7
:1011B00095E00E943F026C157D058E059F0508F4A1
:1011C00085C1683379408105910508F401C27EC16B
:1011D00069E973E082E695E00E947E13892B09F4A9
:1011E000FAC04091160150E060E070E080EA93E0C0
:1011F0000E94A2024091150150E060E070E080EA98
:1012000093E00E94A2024091100150E060E070E083
:1012100080EA93E00E94A20240912C0450912D0498
:1012200060912E0470912F0480EA93E00E94A20244
:1012300040910F0150E060E070E080EA93E00E948E
:10124000A202409111015091120160E070E080EA29
:1012500093E00E94A2024091130150E060E070E030
:1012600080EA93E00E94A2024091140150E060E005
:1012700070E080EA93E00E94A20240910E0150E0EB
:1012800060E070E080EA93E00E94A20240910D01CC
:1012900050E060E070E080EA93E00E94A20240919A
:1012A0000B0150E060E070E080EA93E00E94A2024F
:1012B0004091290450E060E070E080EA93E00E94F1
:1012C000A2024091270450E060E070E080EA93E0E1
:1012D0000E94A20240910A0150E060E070E080EAC2
:1012E00093E00E94A2024091230450912404609153
:1012F00025047091260480EA93E00E94A2024091A6
:101300001F0450912004609121047091220480EA0E
:1013100093E00E94A20244E650E060E070E080EAC0
:1013200093E00E94A2026091C60570E080E090E028
:101330000E94C91122E538EB4EE95CE30E947D1260
:1013400002E814E022E04AE00E943613C8010E943D
:101350003C1080EA93E00E943C106091C70570E069
:1013600080E090E00E94C91120E030E048EF5FE3A8
:101370000E947D1222E04AE00E943613C8010E94BA
:101380003C1080EA93E00E943C106091C80570E038
:1013900080E090E00E94C91122E538EB4EE95CE361
:1013A0000E947D1222E04AE00E943613C8010E948A
:1013B0003C1080EA93E00E943C106091C90570E007
:1013C00080E090E00E94C9112EEA37E441EE5DE32F
:1013D0000E947D1274C062EA73E082E695E00E948A
:1013E0007E13892B29F00E944B058EEA93E06CC096
:1013F00066EC73E082E695E00E94B513892BA9F0B4
:101400008BEC93E00E943C1089E291E00E943C103A
:1014100082ED93E00E943C104AE050E062E874E004
:1014200084E690E00E94CF134FC066EE73E082E640
:1014300095E00E94B513892B19F06091C6051EC076
:101440006CEE73E082E695E00E94B513892B61F0A3
:101450006091C70570E080E090E00E94C91120E033
:1014600030E048EF5FE327C067EF73E082E695E086
:101470000E94B513892B61F06091C80570E080E08F
:1014800090E00E94C91122E538EB4EE95CE313C0FD
:1014900063E074E082E695E00E94B513892BB1F019
:1014A0006091C90570E080E090E00E94C9112EEAC9
:1014B00037E441EE5DE30E947D1202E814E022E091
:1014C0004AE00E943613C8010E943C1089E291E074
:1014D0001F910F91FF90EF90DF90CF900C943C10F4
:1014E00082E695E00E943F0260931601EFCF82E60C
:1014F00095E00E943F0260931501E8CF82E695E0F7
:101500000E943F0260931001E1CF82E695E00E94C5
:101510003F0260930F01DACF82E695E00E943F021E
:101520007093120160931101D1CF82E695E00E9481
:101530003F0260931301CACF82E695E00E943F020A
:1015400060931401C3CF82E695E00E943F0260934E
:101550000E01BCCF82E695E00E943F0260930D0130
:10156000B5CF82E695E00E943F0260930C01AECFBA
:1015700082E695E00E943F0260930B01A7CF82E6CE
:1015800095E00E943F0260932904A0CF82E695E097
:101590000E943F026093280499CF82E695E00E9462
:1015A0003F026093270492CF82E695E00E943F02BB
:1015B00060930A018BCF82E695E00E943F02609320
:1015C00023047093240480932504909326047ECFF3
:1015D00082E695E00E943F0260931F04709320040E
:1015E000809321049093220471CFCF93DF930E94C4
:1015F0000C10EC0190FD33C093FF04C088E690E02E
:101600000E944810D2FF04C08BE790E00E9448106F
:10161000D1FF04C080E990E00E944810809132041C
:10162000DC2FE82FF0E0EA51FB4FC083CD3059F4B6
:101630001092320489E291E00E943C100E94630201
:101640000E94A50503C08F5F8093320480910D0135
:10165000882329F08D2FDF91CF910C942710DF91F3
:10166000CF9108959091C60581E0933308F480E00E
:1016700008951F920F920FB60F9211242F933F934C
:101680004F935F936F937F938F939F93AF93BF938A
:10169000EF93FF9320913504309136042F5F3F4F35
:1016A00030933604209335048091370490913804A8
:1016B000A0913904B0913A040196A11DB11D809307
:1016C000370490933804A0933904B0933A04283E29
:1016D000334000F180910C01811106C0809110010E
:1016E0008F5F8093100104C00E94320B8823B1F3F6
:1016F000109236041092350480910A0181110E94E3
:10170000270280913B0490913C04019690933C0405
:1017100080933B0480913B0490913C04CC9798F0DB
:1017200080911804909119049093170480931604E3
:10173000109219041092180481E080931104109201
:101740003C0410923B0480912C0490912D04A091B4
:101750002E04B0912F04892B8A2B8B2B09F44AC0BD
:1017600020910B018091370490913804A0913904A5
:10177000B0913A0440912C0450912D0460912E04B4
:1017800070912F04213079F484179507A607B707C5
:1017900088F120913504309136042230310550F122
:1017A000215031090FC084179507A607B70710F11C
:1017B0002091350430913604273E43E03407D0F4BD
:1017C0002F5F3F4F309336042093350440912C0413
:1017D00050912D0460912E0470912F04841B950B61
:1017E000A60BB70B8093370490933804A093390469
:1017F000B0933A040E943404FF91EF91BF91AF91EE
:101800009F918F917F916F915F914F913F912F9118
:101810000F900FBE0F901F901895882321F084B56C
:10182000806884BD089584B58F7784BD5E980895DF
:101830000F931F930E94320B811105C080E01F910E
:101840000F910C940D0C409123045091240460914D
:10185000250470912604411551056105710559F162
:10186000209116018091150190E034E6239F800DB0
:10187000911D112400911F04109120042091210436
:1018800030912204AA2797FDA095BA2F04171507B7
:101890002607370730F084179507A607B70758F0D3
:1018A00005C084179507A607B70740F6801791076C
:1018B000A207B30718F284B5806884BD1F910F9109
:1018C0000895809111048823C1F1609116047091EC
:1018D000170480E090E00E94C71120E030E041E66C
:1018E00055E40E94331120E030E040E752E40E94CA
:1018F0007D12AB01BC01409312045093130460931A
:101900001404709315046091120470911304809173
:1019100014049091150420E030E040E05FE30E9461
:101920007D12AB01BC0140931204509313046093E9
:101930001404709315041092110408955C9A5C9835
:1019400008955D9A5D9808950F931F93CF93DF9349
:101950005D98C7E0D0E0082F10E0C8010C2E02C04F
:10196000959587950A94E2F780FF02C05B9A01C0C3
:101970005B980E949E0C219780F75D9ADF91CF9132
:101980001F910F910895843081F148F48130D9F08E
:10199000A0F08230F1F0833009F04CC020C08730D5
:1019A000B1F130F4853039F1863009F043C029C0F7
:1019B000883099F18930F1F536C0662311F080E165
:1019C00037C080E035C0662311F081E131C081E08D
:1019D0002FC0662311F082E12BC082E029C066236C
:1019E00011F083E125C083E023C0662311F084E178
:1019F0001FC084E01DC0662311F085E119C085E099
:101A000017C0662311F086E113C086E011C066237B
:101A100011F087E10DC087E00BC0662311F088E16B
:101A200007C088E005C0662311F089E101C089E0A4
:101A30000C94A40C08953F924F925F926F927F9204
:101A40008F929F92AF92BF92CF92DF92EF92FF92CE
:101A50000F931F93CF93DF9310E06C01E12CF12CD7
:101A6000C9E9D1E07BC061E0812F0E94C30C81E015
:101A7000A81AB108C1F70E94A10CC701B6010E94C3
:101A8000C7114B015C0120E030E040E855E40E94C2
:101A90007D12762E672E582E492E20E030E040E849
:101AA0005FE3D301F2016B2F7A2F8F2F9E2F0E94BD
:101AB0002F1187FD2BC020E03FEF4FE757E4D30104
:101AC000F2016B2F7A2F8F2F9E2F0E9479121816FA
:101AD000A4F420E030E040E251E4C501B4010E94EA
:101AE0007D120E949B1105C0CE010197F1F7615054
:101AF000710961157105C1F70EC0A3019201652F2F
:101B0000742F832F922F0E949B1102C061E070E01E
:101B1000CB010197F1F71F5F1A3001F5A301920184
:101B2000652F762D832F942D0E949B118B0120E031
:101B300030E040E85FE3D301F2016B2F762D8F2F69
:101B4000942D0E942F1187FF03C0C1E0D0E001C097
:101B5000E80138E0332E09E911E043C026E0A22E67
:101B6000B12C81CF61E0832D0E94C30C81E0E81A83
:101B7000F108C1F70E94A10C20E030E040E85FE3EB
:101B8000D301F2016B2F762D8F2F942D0E942F11F0
:101B900087FD22C020E03FEF4FE757E4D301F20179
:101BA0006B2F762D8F2F942D0E9479121816A4F486
:101BB00020E030E040E251E4C501B4010E947D1212
:101BC0000E949B1105C0C8010197F1F7615071098E
:101BD00061157105C1F703C0CE010197F1F73A9481
:101BE00021F096E0E92EF12CBDCFDF91CF911F912E
:101BF0000F91FF90EF90DF90CF90BF90AF909F90AC
:101C00008F907F906F905F904F903F90089580915C
:101C100015018E3111F081113AC08091100481308C
:101C2000B1F58AEF90E00E941B0D81EE90E00E94DA
:101C30001B0D88EC90E00E941B0D8FEA90E00E9443
:101C40001B0D86E990E00E941B0D8DE790E00E943D
:101C50001B0D84E690E00E941B0D8BE490E00E9437
:101C60001B0D82E390E00E941B0D89E190E00E9431
:101C70001B0D8AE090E00E941B0D8AE090E00E941C
:101C80001B0D85E090E00E941B0D1092100408953A
:101C9000CF92DF92EF92FF921F93CF93DF93C0908A
:101CA0000201D0900301E0900401F0900501D1E021
:101CB00020E030E0A901C701B6010E94791287FD3A
:101CC000D0E0C1E0CD2720E030E0A901C701B60196
:101CD0000E942F1187FF04C0F7FAF094F7F8F094F0
:101CE00080910E01811112C026E636E646EE5FE3D2
:101CF000C701B6010E947D1220E030E040E052E4CE
:101D00000E94CB10C62ED72EE82EF92EC701B601A1
:101D10000E949B11D62F70E080E090E00E94C911D4
:101D20009B01AC01C701B6010E94CA1020E030E05F
:101D300048EC52E40E947D120E949B11862F1AE00B
:101D4000612F0E94E012F82E892F60E00E94C30CE0
:101D500061E08F2D0E94C30C8D2F612F0E94E01235
:101D6000D82F892F60E00E94C30C8D2F612F0E9415
:101D7000E012D82F892F60E00E94C30C8D2F612FB5
:101D80000E94E012892F60E00E94C30C60E08C2F5B
:101D9000DF91CF911F91FF90EF90DF90CF900C9447
:101DA000C30C1F93CF93DF93882331F080911001F0
:101DB00080958170C82F02C0C1E0D0E02091100151
:101DC000822F6AE00E94E012182F863008F010E09F
:101DD000DAE0822F6D2F0E94E012892F60E00E94CE
:101DE000C30C6C2F812F0E94C30C809115016D2FA5
:101DF0000E94E012D82F892F60E00E94C30C6C2F44
:101E00008D2F0E94C30C8091160190910F019111AA
:101E100003C08D3008F08C506AE00E94E012C82F99
:101E2000892F60E00E94C30C60E08C2FDF91CF917E
:101E30001F910C94C30C0F931F93CF93DF9380914A
:101E40001401CAE06C2F0E94E012D82F892F60E0A5
:101E50000E94C30C61E08D2F0E94C30C809113017E
:101E60006C2F0E94E012C82F892F60E00E94C30CE3
:101E700061E08C2F0E94C30C80911101909112019E
:101E8000CAE0D0E0BE010E94EC128B0160E00E942B
:101E9000C30CC801BE010E94EC1260E0DF91CF913B
:101EA0001F910F910C94C30CAF92BF92CF92DF920F
:101EB000EF92FF920F931F93CF93DF9360911204E1
:101EC00070911304809114049091150420E030E087
:101ED0004AE754E40E947D120E949B11B62EA72E61
:101EE000182F092FC0E0D0E04AE0C42ED12CE12CFD
:101EF000F12C6B2D7A2D812F902FA70196010E9436
:101F00001413862FB22EA32E142F052F61E0C2309A
:101F1000D10509F060E00E94C30C2196C530D105BF
:101F200041F780E0DF91CF911F910F91FF90EF90EB
:101F3000DF90CF90BF90AF900C94A40C1F920F92A3
:101F40000FB60F9211242F938F939F93EF93FF93CC
:101F50008091C0009091C6008871E0913F04EF5FCE
:101F6000EF7120913E04E21739F0E0933F04F0E076
:101F7000EE5BFB4F908301C082E080933D04FF91B4
:101F8000EF919F918F912F910F900FBE0F901F9007
:101F900018951F920F920FB60F9211248F939F9353
:101FA000EF93FF939091410480914004981769F05A
:101FB000E0914004EF5FEF71E0934004F0E0EE59F0
:101FC000FB4F80818093C60005C08091C1008F7D4A
:101FD0008093C100FF91EF919F918F910F900FBE61
:101FE0000F901F9018951092410410924004109287
:101FF0003F0410923E0497FF04C022E02093C000EB
:102000009F779093C5008093C40088E98093C100B6
:1020100086E08093C200089590913F0480913E0431
:10202000981789F0E0913E04EF5FEF71E0933E0472
:10203000F0E0EE5BFB4F808190913D04392F20E072
:10204000280F311D02C020E031E0C90108959091B0
:1020500041049F5F9F71209140049217E1F3E92FA3
:10206000F0E0EE59FB4F8083909341048091C100D2
:1020700080628093C1000895CF93DF93EC0102C08A
:102080000E94271089918111FBCFDF91CF91089594
:10209000CF93DF93EC0102C00E942710FE0121962E
:1020A00084918111F9CFDF91CF910895F8940E9426
:1020B0009A010E94BE010E94CA010E94AE010E94C4
:1020C000F6020E94A8010E94F00478940E94BE02C9
:1020D000C9E9D1E00E94610C84E10E9443040E949E
:1020E000180C0E94F50A0E948503909110018091BE
:1020F0002B04981739F081E00E94D10E80911001D5
:1021000080932B049091150180912A04981709F46B
:102110003EC081E0809310040E94FA020E94A7044E
:102120000E94D80489E291E00E943C10809127042B
:10213000811105C080912904882359F00FC00E94A5
:102140001B0F80E593ECFE013197F1F70197D9F76A
:10215000F1CF80912804882359F00FC00E94480EC7
:1021600080E593ECFE013197F1F70197D9F7F1CFB4
:102170008091150180932A040AC00E94540F80E5C3
:1021800093ECFE013197F1F70197D9F7F1CF0E9457
:10219000070EA0CF5058BB27AA270ED070C161D11F
:1021A00030F066D120F031F49F3F11F41EF456C197
:1021B0000EF4E095E7FB4CC1E92F72D180F3BA171A
:1021C000620773078407950718F071F49EF58AC1BA
:1021D0000EF4E0950B2EBA2FA02D0B01B901900142
:1021E0000C01CA01A0011124FF27591B99F0593F86
:1021F00050F4503E68F11A16F040A22F232F342FCE
:102200004427585FF3CF469537952795A795F0401B
:102210005395C9F77EF41F16BA0B620B730B840B30
:10222000BAF09150A1F0FF0FBB1F661F771F881FE8
:10223000C2F70EC0BA0F621F731F841F48F4879540
:1022400077956795B795F7959E3F08F0B3CF93952F
:10225000880F08F09927EE0F979587950895D4D0A9
:1022600008F481E008950CD00AC102D140F0F9D001
:1022700030F021F45F3F19F0EBC0511134C1EEC0D2
:102280000FD198F39923C9F35523B1F3951B550B3F
:10229000BB27AA2762177307840738F09F5F5F4F39
:1022A000220F331F441FAA1FA9F333D00E2E3AF07A
:1022B000E0E830D091505040E695001CCAF729D094
:1022C000FE2F27D0660F771F881FBB1F26173707E3
:1022D0004807AB07B0E809F0BB0B802DBF01FF2713
:1022E00093585F4F2AF09E3F510568F0B1C0FBC084
:1022F0005F3FECF3983EDCF3869577956795B7954D
:10230000F7959F5FC9F7880F911D9695879597F967
:102310000895E1E0660F771F881FBB1F62177307E0
:102320008407BA0720F0621B730B840BBA0BEE1FF5
:1023300088F7E0950895BCD088F09F5790F0B92FAA
:102340009927B751A0F0D1F0660F771F881F991F0A
:102350001AF0BA95C9F712C0B13081F0C3D0B1E01C
:102360000895C0C0672F782F8827B85F39F0B93F2C
:10237000CCF3869577956795B395D9F73EF490950C
:102380008095709561957F4F8F4F9F4F0895E8948A
:1023900009C097FB3EF490958095709561957F4FAD
:1023A0008F4F9F4F9923A9F0F92F96E9BB2793955B
:1023B000F695879577956795B795F111F8CFFAF46B
:1023C000BB0F11F460FF1BC06F5F7F4F8F4F9F4F9C
:1023D00016C0882311F096E911C0772321F09EE8FA
:1023E000872F762F05C0662371F096E8862F70E060
:1023F00060E02AF09A95660F771F881FDAF7880F3A
:102400009695879597F90895990F0008550FAA0B8F
:10241000E0E8FEEF16161706E807F907C0F01216F7
:102420001306E407F50798F0621B730B840B950BFA
:1024300039F40A2661F0232B242B252B21F408954F
:102440000A2609F4A140A6958FEF811D811D0895EC
:1024500097F99F6780E870E060E008959FEF80EC57
:10246000089500240A9416161706180609060895FA
:1024700000240A9412161306140605060895092E60
:102480000394000C11F4882352F0BB0F40F4BF2BCF
:1024900011F460FF04C06F5F7F4F8F4F9F4F08950F
:1024A00057FD9058440F551F59F05F3F71F0479505
:1024B000880F97FB991F61F09F3F79F087950895EA
:1024C000121613061406551FF2CF4695F1DF08C009
:1024D000161617061806991FF1CF86957105610526
:1024E00008940895E894BB2766277727CB0197F9CE
:1024F00008958ADF08F48FEF08950BD0C0CFB1DFC5
:1025000028F0B6DF18F0952309F0A2CFA7CF112449
:10251000EACFC6DFA0F3959FD1F3950F50E0551F8A
:10252000629FF001729FBB27F00DB11D639FAA2728
:10253000F00DB11DAA1F649F6627B00DA11D661F77
:10254000829F2227B00DA11D621F739FB00DA11D98
:10255000621F839FA00D611D221F749F3327A00D52
:10256000611D231F849F600D211D822F762F6A2FEE
:1025700011249F5750408AF0E1F088234AF0EE0F73
:10258000FF1FBB1F661F771F881F91505040A9F780
:102590009E3F510570F05CCFA6CF5F3FECF3983EB5
:1025A000DCF3869577956795B795F795E7959F5FE7
:1025B000C1F7FE2B880F911D9695879597F9089581
:1025C000991B79E004C0991F961708F0961B881F85
:1025D0007A95C9F780950895AA1BBB1B51E107C0E6
:1025E000AA1FBB1FA617B70710F0A61BB70B881FA3
:1025F000991F5A95A9F780959095BC01CD01089532
:1026000097FB072E16F4009407D077FD09D00E949F
:10261000EC1207FC05D03EF4909581959F4F0895EC
:10262000709561957F4F0895A1E21A2EAA1BBB1BDE
:10263000FD010DC0AA1FBB1FEE1FFF1FA217B3078E
:10264000E407F50720F0A21BB30BE40BF50B661FA4
:10265000771F881F991F1A9469F760957095809568
:1026600090959B01AC01BD01CF010895EF920F93AE
:102670001F93CF93C02F47FF02C034E101C034E065
:10268000E42FFF27E7FDF095F7FF03C0F195E195F3
:10269000F109E32E022F2E2F4C2F512F0E9456149A
:1026A0008C2F912FCF911F910F91EF9008951F9331
:1026B000FC0199278827BC01E89411911032E9F3B5
:1026C000193010F01E30C8F31B3251F01D3249F49E
:1026D000689406C00E94F013610F711D811D911D49
:1026E000119110531A30B0F33EF490958095709587
:1026F00061957F4F8F4F9F4F1F910895FB0151911F
:102700005523B1F0BF01DC01052E4D91442369F042
:1027100010D0D9F7CD010190002049F04D91411121
:1027200008D0C9F3FB014111EECF81E090E00197A1
:102730000895402539F0403229F440294B57465E30
:1027400008F018940895FC018191861721F08823E0
:10275000D9F7992708953197CF010895FB01DC013E
:1027600001900D920020E1F70895FB01519155234E
:10277000A9F0BF01DC014D9145174111E1F759F472
:10278000CD010190002049F04D9140154111C9F350
:10279000FB014111EFCF81E090E001970895FB012B
:1027A0009F01E8944230C4F04532B4F44A3029F431
:1027B00097FB1EF4909581959F4F642F77270E9479
:1027C000EC12805D8A330CF0895D8193CB01009718
:1027D000A1F716F45DE251931082C9010C94AB1677
:1027E000592F482F372F262F660F771F881F991FC5
:1027F000660F771F881F991F620F731F841F951F15
:10280000660F771F881F991F0895FA01CF93FF93D2
:10281000EF932230CCF02532BCF4C22F2C2F33277B
:1028200044275527FF93EF930E941413EF91FF91D4
:10283000605D6A330CF0695D6193B901CA01605053
:1028400070408040904051F710828F919F91CF91BE
:102850000C94AB16F999FECF92BD81BDF89A9927D9
:1028600080B50895A6E1B0E044E050E00C94BD16B8
:10287000262FF999FECF92BD81BDF89A019700B439
:10288000021639F01FBA20BD0FB6F894FA9AF99AD9
:102890000FBE08950396272F0E9439140E94381402
:1028A000252F0E943914242F0C9439146F927F9293
:1028B0009F92AF92BF92CF92DF92EF92FF920F93CF
:1028C0001F93CF93DF93CDB7DEB729970FB6F89458
:1028D000DEBF0FBECDBF6A01B22E102F0C3318F42D
:1028E000F02EF39402C05CE3F52E0F2D27E0AE012D
:1028F0004F5F5F4F0E94D3157981272F29702130B8
:1029000031F0E1FC06C0E0FE06C060E205C06DE209
:1029100003C06BE201C060E073FF3DC0662311F0AD
:1029200084E001C083E08B1510F4B81A01C0B12C0B
:10293000E4FC0BC08B2DF60190E202C09193815014
:102940008111FCCFCB0CD11CB12C662319F0D60120
:102950006D936D01E2FE0AC08EE4F601808391E47E
:1029600091838283F3E0CF0ED11C0CC08EE6D6019A
:102970008C9391E611969C93119712968C93B3E0E9
:10298000CB0ED11C8B2DF60190E202C091938150A9
:102990008111FCCF40C072FF45C0662311F084E076
:1029A00001C083E08B1510F4B81A01C0B12CE4FC0F
:1029B0000BC08B2DF60190E202C0919381508111E2
:1029C000FCCFCB0CD11CB12C662319F0F60161931E
:1029D0006F01E2FE0EC089E4D6018C938EE411965D
:1029E0008C93119786E412968C93B3E0CB0ED11C96
:1029F0000AC089E6F60180838EE6818386E68283BB
:102A0000F3E0CF0ED11C8B2DF60190E202C0919322
:102A100081508111FCCFF601EB0DF11D10822EEFDC
:102A20003FEFACC0A1E0611101C0A0E04A2F50E02F
:102A30001816190624F49C012F5F3F4F02C021E0B5
:102A400030E0240F351F112329F0412F50E04F5F54
:102A50005F4F02C040E050E0420F531F2B2D30E08B
:102A60004217530714F4B41A01C0B12C3E2D307133
:102A7000E4FC0DC0E3FC0BC02B2DF60140E202C0CC
:102A8000419321502111FCCFCB0CD11CB12CAA2396
:102A900019F0D6016D936D0131110BC02B2DF6018C
:102AA00030E302C0319321502111FCCFCB0CD11C5B
:102AB000B12CF80E0A8140E1A42EA72274FF03C0B6
:102AC000013309F4FA941F142CF42F2D293018F037
:102AD00028E001C021E0AC0197FF02C040E050E0D7
:102AE00060E070E03EE2932EFC01E21BF1099F01E1
:102AF000DC01A41BB50BFE013196EA0FFB1FA12FD1
:102B0000B0E0662477246A1A7B0A4F3F1FEF510713
:102B100019F4D6019D926D018417950754F024177E
:102B200035073CF47F01E60EF71ED70111961C9184
:102B300001C010E3415051096F5F7F4F46155705A3
:102B400024F0D6011D936D01E0CF4817590739F4E1
:102B5000063320F4053319F4A11001C011E3F60186
:102B600011938B2DDF0190E202C09D938150811162
:102B7000FCCFEB0DF11D108220E030E0C901299659
:102B80000FB6F894DEBF0FBECDBFDF91CF911F917E
:102B90000F91FF90EF90DF90CF90BF90AF909F90FC
:102BA0007F906F900895283008F027E03327DA01EE
:102BB000990F311D87FD916000966105710539F40B
:102BC00032602E5F3D9330E32A95E1F708959F3FF1
:102BD00030F080387105610509F03C5F3C5F3D9342
:102BE000913008F08068911DDF93CF931F930F936E
:102BF000FF92EF92192F987F9695E92F96959695CB
:102C0000E90FFF27EE5FFE4F99273327EE24FF24BD
:102C1000A701E70105900894079428F4360FE71EF2
:102C2000F81E491F511D660F771F881F991F0694B4
:102C3000A1F70590079428F4E70EF81E491F561FC8
:102C4000C11D770F881F991F661F0694A1F7059075
:102C5000079428F4F80E491F561FC71FD11D880F6F
:102C6000991F661F771F0694A1F70590079420F41B
:102C7000490F561FC71FD81F990F661F771F881F40
:102C80000694A9F784911095177041F0D695C795D1
:102C900057954795F794E7941A95C1F7E8EAF0E05D
:102CA00068941590159135916591959105907FE205
:102CB0007395E118F10A430B560BC90BD009C0F705
:102CC000E10CF11E431F561FC91FD01D7EF4703347
:102CD00011F48A95E6CFE894015030F0080F0AF419
:102CE0000027021708F4202F2395022F7A3328F0AB
:102CF00079E37D932A95E9F710C07D932A9589F6AB
:102D0000069497956795379517951794E118F10AEA
:102D1000430B560BC90BD00998F023957E91739500
:102D20007A3308F070E37C932013B8F77E917061DA
:102D30007D9330F0839571E37D9370E32A95E1F7FD
:102D40001124EF90FF900F911F91CF91DF91992760
:102D500087FD90950895DC01FC01672F7191772321
:102D6000E1F7329704C07C916D9370836291AE1746
:102D7000BF07C8F30895DC01CB01FC01F999FECF30
:102D800006C0F2BDE1BDF89A319600B40D924150F3
:0A2D90005040B8F70895F894FFCF03
:102D9A001E500000C6420000C642010101010101A5
:102DAA001EDF0702010A0A001F1C1F1E1F1E1F1F0B
:102DBA001E1F1E1F64004F4B000D0A002F2F7E7E20
:102DCA007E7E7E7E7E7E7E7E7E7E2A2A2A2A2A2A11
:102DDA002A2A2A2A2A2A204E6978696520436C6F92
:102DEA00636B20496E737472756374696F6E7320B6
:102DFA002A2A2A2A2A2A2A2A2A2A2A2A7E7E7E7ED9
:102E0A007E7E7E7E7E7E7E7E7E7E0041544D65671E
:102E1A0061333238204E6978696520436C6F636B81
:102E2A0000436865636B20706574656D696C6C73CB
:102E3A002E626C6F6773706F742E636F6D20666F8E
:102E4A0072206D6F726520696E666F0054797065C5
:102E5A002027484F5552533D31302720746F207335
:102E6A0065742074686520686F75727320746F20AA
:102E7A00273130272E005479706520274D494E5549
:102E8A005445533D32362720746F2073657420747D
:102E9A006865206D696E7574657320746F202732BA
:102EAA0036272E0056697369742074686520555256
:102EBA004C2061626F766520746F20646F776E6C48
:102ECA006F6164206120636C6F636B2063616C695E
:102EDA0062726174696F6E206170702E002C20001E
:102EEA00686F757273003F00486F757273003D001A
:102EFA006D696E75746573004D696E7574657300DE
:102F0A007365636F6E6473005365636F6E647300F9
:102F1A006D7363616C006D532043616C6962726109
:102F2A0074696F6E006D696C74696D65004D494C0A
:102F3A002054696D65007965617200596561720096
:102F4A006D6F6E7468004D6F6E746800646179000D
:102F5A004461790063656C736975730043656C73CA
:102F6A0069757300646F6563686F00446F20456319
:102F7A00686F006163636C6F636B00414320436C4D
:102F8A006F636B007874616C697366617374007344
:102F9A00686F77746865726D0053686F772054683C
:102FAA0065726D0073686F77667265710053686F3A
:102FBA007720467265710073686F77646174650083
:102FCA0053686F77204461746500746F67676C6536
:102FDA006C656400546F67676C65204C4544006EED
:102FEA0069786965736C6565707374617274004E93
:102FFA006978696520536C656570205374617274D1
:10300A002054696D65006E69786965736C656570D1
:10301A00656E64004E6978696520536C6565702039
:10302A00456E642054696D6500676574616C6C0057
:10303A002C0072616D746F656570726F6D00454525
:10304A0050524F4D2053746F7261676520436F6D04
:10305A00706C65746500706F6B650048656C6C6FA9
:10306A00210049276D2053657269616C204E756D88
:10307A006265723A20007077726F6B0068766665D7
:10308A0065646261636B0062617474766F6C74610B
:10309A0067650072656374696669656461630000E7
:00000001FF
