:100000000C94D1000C94EE000C94EE000C94FE01C4
:100010000C94EE000C94EE000C94EE000C94EE00A8
:100020000C94EE000C94EE000C94EE000C94210E57
:100030000C94EE000C94EE000C94EE000C94EE0088
:100040000C94EE000C94EE000C9486120C94B112F9
:100050000C94EE000C94D1010C94EE000C94EE0084
:100060000C94EE000C94EE005541525420467261FF
:100070006D65204572726F723A20005541525420CE
:100080004F76657272756E204572726F723A2000FB
:10009000427566666572206F766572666C6F772052
:1000A0006572726F723A200000407A10F35A00A015
:1000B000724E18090010A5D4E80000E87648170031
:1000C00000E40B54020000CA9A3B000000E1F50571
:1000D000000080969800000040420F000000A086BB
:1000E00001000000102700000000E80300000000ED
:1000F0006400000000000A00000000000100000091
:1001000000002C76D888DC674F0823DFC1DFAE59AA
:10011000E1B1B796E5E3E453C63AE651997696E83D
:10012000E6C28426EB898C9B62ED407C6FFCEFBCC1
:100130009C9F40F2BAA56FA5F490055A2AF75C93EC
:100140006B6CF9676DC11BFCE0E40D47FEF520E622
:10015000B500D0ED902E0300943577050080841E05
:10016000080000204E0A000000C80C333333330F60
:10017000986E12831141EF8D2114893BE65516CFFD
:10018000FEE6DB18D1844B381BF77C1D901DA4BB09
:10019000E424203284725E228100C9F124ECA1E5BE
:1001A0003D2711241FBECFEFD8E0DEBFCDBF14E046
:1001B000A0E0B1E0EAE6F3E302C005900D92A23EB2
:1001C000B107D9F716E0A2EEB4E001C01D92AC3938
:1001D000B107E1F70E943E130C94B3190C94000090
:1001E00045983D9A8EEA97E00197F1F73D9885EFA3
:1001F00090E00197F1F786B1E8EBF6E03197F1F77F
:100200008072089545983D9A95E09A95F1F781118D
:100210003D9885EF90E00197F1F73D980895459856
:100220003D9A85E08A95F1F73D988CE48A95F1F73F
:1002300086B195EF9A95F1F785FB882780F90895A7
:10024000CF93DF93D82FC9E005C08D2F81700E9416
:100250000201D695C150C9F7DF91CF910895CF9390
:10026000DF93D9E0C0E008C00E940F0120E8829F20
:10027000C0011124C695C82BD150B1F78C2FDF9146
:10028000CF910895CF92DF92EF92FF921F93CF9379
:10029000DF930E94F0008CEC0E94200184E40E9415
:1002A00020010E940F018823E1F30E94F0008CECF2
:1002B0000E9420018EEB0E9420010E942F01C82F76
:1002C0000E942F01182F0E94F0006C2F62956F7012
:1002D000CF70D0E0177020E1129FC0011124682B6D
:1002E000772767FD7095872F972F0E94B1146B01B8
:1002F0007C0181E792E0C89FB001C99F700DD89F33
:10030000700D112480E090E00E94AF1427E137EBDC
:1003100041ED58E30E9465159B01AC01C701B60190
:100320000E94B313DF91CF911F91FF90EF90DF9068
:10033000CF9008958AB18C6F8AB98BB183708BB9D5
:1003400052985A9A2098289A87B1807F87B9089541
:1003500081E08093680080936B000895109289007B
:100360008FE380938800EFE6F0E0808182608083F5
:10037000E1E8F0E080818C60808308958FEA8093CB
:100380007A00EBE7F0E08081846080838FE08093E7
:100390007E00089584B5836884BD85B5816085BD80
:1003A00008951F920F920FB60F9211248F939F936F
:1003B000EF93FF9380910505E82FF0E0909179008D
:1003C000E856F94F90838F5F843018F480930505C9
:1003D00002C01092050580910505805A80937C002B
:1003E00080917A00806480937A00FF91EF919F91D1
:1003F0008F910F900FBE0F901F9018951F920F9224
:100400000FB60F9211248F939F93809106058F5FF3
:100410008093060590910C01913049F4883738F0AB
:10042000809110018F5F80931001109206058091DA
:10043000EA049091EB0401969093EB048093EA0414
:100440009F918F910F900FBE0F901F9018958BB1B9
:1004500080588BB908955F9A80E090E30197F1F797
:100460005F980895282F30E002C0359527956A954A
:10047000E2F72170332781E02827C9010895CF933F
:10048000DF93CDB7DEB7C456D1090FB6F894DEBFFF
:100490000FBECDBF6DE370E00E948B16BC016F5F95
:1004A0007F4FCE0101960E949616CE0101960E94C2
:1004B0003F16CC59DF4F0FB6F894DEBF0FBECDBF4D
:1004C000DF91CF91089584E6E8EBF5E0A4E3B6E090
:1004D00001900D928A95E1F784E6E8EBF5E0DF0103
:1004E0001D928A95E9F70895EF92FF920F931F935B
:1004F0006E157F058007910730F0E1E0261737077A
:100500004807590708F4E0E08E2F1F910F91FF90E4
:10051000EF900895CF93DF93EC01CB01BA012AE06D
:1005200030E044E555E00E94ED16CE010E94241310
:100530008EED94E00E94241384E595E0DF91CF9145
:100540000C942413CF93DF93EC01CB01BA012AE082
:1005500030E044E555E00E94ED1684E595E00E9408
:100560002413CE01DF91CF910C94241386E291E005
:100570000E94241389E291E00C9424138CE291E010
:100580000E94241389E291E00E9424138BE791E0FA
:100590000E94241389E291E00E94241386E991E0ED
:1005A0000E94241389E291E00E94241389E291E0E1
:1005B0000E94241381EC91E00E94241389E291E0CF
:1005C0000E94241380ED91E00E94241389E291E0BF
:1005D0000E9424138AEF91E00E94241389E291E0A3
:1005E0000E94241388E292E00E94241389E291E0A1
:1005F0000E94241381E692E00E94241389E291E094
:100600000E9424138CE291E00C94241380E190E08A
:100610000C94DB124AE050E064E575E08091110132
:10062000909112010E94B7160E9424138DE20E943D
:100630000F134AE050E064E575E08091130190E00B
:100640000E94B7160E9424138DE20E940F134AE005
:1006500050E064E575E08091140190E00E94B716C7
:100660000E9424138AEA92E00E94241380910F01D1
:10067000811114C0809116018D3038F090E04AE06D
:1006800050E064E575E00C9710C0811107C04AE0A6
:1006900050E064E575E08CE090E007C04AE050E08F
:1006A00064E575E08091160190E00E94B7160E9403
:1006B00024138AE30E940F134AE050E064E575E0DA
:1006C0008091150190E00E94B7160E9424138AE3DE
:1006D0000E940F13809110014AE050E064E575E03C
:1006E00090E00E94B7160E9424138CE20C940F1322
:1006F0002091110130911201C90183709927892B32
:1007000079F4C90164E670E00E94D415892B51F494
:10071000C90160E971E00E94D41521E0892B19F02C
:1007200020E001C021E0822F0895CF93DF93CDB761
:10073000DEB72D970FB6F894DEBF0FBECDBF8DE0AC
:10074000E7E1F1E0DE01119601900D928A95E1F763
:100750008B818C3131F40E947803882331F08DE154
:1007600003C08D3111F48CE18B83809110018C33A7
:1007700038F0809115018F5F809315011092100160
:10078000809115018C3338F0809116018F5F809332
:1007900016011092150180911601883138F0809170
:1007A00014018F5F80931401109216018091130140
:1007B000FE01E80FF11D209114019181921730F490
:1007C0008F5F8093130181E0809314018091130166
:1007D0008D3060F0809111019091120101969093FB
:1007E00012018093110181E0809313012D960FB6C1
:1007F000F894DEBF0FBECDBFDF91CF910895CF93A8
:10080000DF93D82FC62FFA01633010F4C45F3197FD
:100810009F013695279536952795CF0160E971E0C0
:100820000E94D415260F371F2E0F3F1FCF0164E6FD
:1008300070E00E94D415261B370B4DE0C49FC00109
:100840001124039665E070E00E94E8156D0F711D9C
:10085000260F371FC90167E070E00E94D415DF91B1
:10086000CF9108950E9442019B01462F532F682F7C
:10087000792F40930601509307016093080170930C
:100880000901622F732F0895809199068A3518F017
:100890008091000102C0809101018093EC0480915D
:1008A000EC0487BD08950F931F93CF93DF93682FB8
:1008B000809110010E94C815911154C00CE116E0FE
:1008C000C0E0D0E0C530D10551F0F80184819581B8
:1008D000A681B78180839183A283B3830AC00E94DB
:1008E0003204609330067093310680933206909301
:1008F000330621960C5F1F4FC630D10519F7CCE1A6
:10090000D6E0F0E0E0E080E090E029913991499173
:1009100059910F2F1E2FB8010E94B313F62FE72F06
:1009200026E0C433D20789F7DF014B2F5A2F682FF7
:10093000792F4093ED045093EE046093EF0470938D
:10094000F00420E030E040EC50E4EF016D2F7C2F0C
:100950000E941B14609302017093030180930401B1
:1009600090930501DF91CF911F910F9108950F93FF
:100970001F9380910E01813049F4609102017091C2
:100980000301809104019091050114C026E636E62A
:1009900046EE5FE3609102017091030180910401D2
:1009A000909105010E94651520E030E040E052E49E
:1009B0000E94B31304E515E023E04AE00E941E16EE
:1009C000C8010E9424138CE21F910F910C940F1305
:1009D0000F931F936091E4047091E5048091E60405
:1009E0009091E70404E515E023E04AE00E941E161A
:1009F000C8010E9424138CE21F910F910C940F13D5
:100A000081E190E00E941A176093FE047093FF0446
:100A1000809300059093010584E090E00E941A17EE
:100A20006093F5047093F6048093F7049093F804B0
:100A300080E090E00E941A176093F1047093F20432
:100A40008093F3049093F40480E190E00E941217E5
:100A500080930F018FE090E00E9412178093FB04B7
:100A60008EE090E00E9412178093FA048DE090E0EF
:100A70000E9412178093F9048CE090E00E941217F4
:100A800080930E018BE090E00E94121780930D017D
:100A90008AE090E00E94121780930C0189E090E0B8
:100AA0000E94121780930B0188E090E00E941217B9
:100AB00080930A0108954091FE045091FF046091D3
:100AC00000057091010581E190E00E94321740918C
:100AD000F5045091F6046091F7047091F80484E0F5
:100AE00090E00E9432174091F1045091F20460911D
:100AF000F3047091F40480E090E00E94321760915A
:100B00000F0180E190E00E9420176091FB048FE0CC
:100B100090E00E9420176091FA048EE090E00E941D
:100B200020176091F9048DE090E00E9420176091F9
:100B30000E018CE090E00E94201760910D018BE087
:100B400090E00E94201760910C018AE090E00E94E2
:100B5000201760910B0189E090E00E9420176091BE
:100B60000A0188E090E00C942017CF92DF92EF9278
:100B7000FF920F931F936DEA72E084E396E00E9468
:100B80006616892B21F16AE274E084E396E00E9404
:100B90006616892B41F04091160150E060E070E04C
:100BA00083EB92E0EDC169EB72E084E396E00E9492
:100BB0006616892B09F472C784E396E00E943F020F
:100BC000683171058105910508F472C767C76BEB41
:100BD00072E084E396E00E946616892B21F16AE2B6
:100BE00074E084E396E00E946616892B41F0409100
:100BF000150150E060E070E083EC92E0C1C169EB68
:100C000072E084E396E00E946616892B09F446C7D9
:100C100084E396E00E943F026C33710581059105E3
:100C200008F44DC73BC76BEC72E084E396E00E948A
:100C30006616892B21F16AE274E084E396E00E9453
:100C40006616892B41F04091100150E060E070E0A1
:100C500083ED92E095C169EB72E084E396E00E9437
:100C60006616892B09F41AC784E396E00E943F02B6
:100C70006C3371058105910508F428C70FC76BED2A
:100C800072E084E396E00E946616892B69F16AE2BD
:100C900074E084E396E00E946616892B59F0409137
:100CA000FE045091FF04609100057091010581EEF2
:100CB00092E066C169EB72E084E396E00E946616FA
:100CC000892B09F4EBC684E396E00E943F0284E39B
:100CD00096E00E943F026093FE047093FF048093AD
:100CE000000590930105DAC660EF72E084E396E0B8
:100CF0000E946616892B21F16AE274E084E396E093
:100D00000E946616892B41F040910F0150E060E08F
:100D100070E088EF92E034C169EB72E084E396E022
:100D20000E946616892B09F4B9C684E396E00E94F6
:100D30003F02623071058105910508F0AFC6CDC64E
:100D400061E073E084E396E00E946616892B29F146
:100D50006AE274E084E396E00E946616892B49F00B
:100D6000409111015091120160E070E086E093E043
:100D700007C169EB72E084E396E00E946616892B56
:100D800009F48CC684E396E00E943F026E3D7940F0
:100D90008105910508F4A8C681C66BE073E084E381
:100DA00096E00E946616892B21F16AE274E084E3E2
:100DB00096E00E946616892B41F04091130150E0A5
:100DC00060E070E081E193E0DBC069EB72E084E316
:100DD00096E00E946616892B09F460C684E396E0CB
:100DE0000E943F026D3071058105910508F485C6AA
:100DF00055C667E173E084E396E00E946616892B8E
:100E000021F16AE274E084E396E00E946616892B81
:100E100041F04091140150E060E070E08BE193E01C
:100E2000AFC069EB72E084E396E00E946616892BFE
:100E300009F434C684E396E00E943F0260327105F3
:100E40008105910508F460C629C66FE173E084E36B
:100E500096E00E946616892B21F16AE274E084E331
:100E600096E00E946616892B41F040910E0150E0F9
:100E700060E070E087E293E083C069EB72E084E3B6
:100E800096E00E946616892B09F408C684E396E072
:100E90000E943F02623071058105910508F0FEC590
:100EA0003AC66FE273E084E396E00E946616892BEF
:100EB00021F16AE274E084E396E00E946616892BD1
:100EC00041F040910D0150E060E070E086E393E076
:100ED00057C069EB72E084E396E00E946616892BA6
:100EE00009F4DCC584E396E00E943F02623071059C
:100EF0008105910508F0D2C515C66EE373E084E361
:100F000096E00E946616892B21F16AE274E084E380
:100F100096E00E946616892B41F040910C0150E04A
:100F200060E070E086E493E02BC069EB72E084E35C
:100F300096E00E946616892B09F4B0C584E396E01A
:100F40000E943F02623071058105910508F0A6C537
:100F5000F0C56FE473E084E396E00E946616892B87
:100F600031F16AE274E084E396E00E946616892B10
:100F700051F040910B0150E060E070E08FE493E0AD
:100F80000E948A028BC569EB72E084E396E00E94BE
:100F90006616892B09F482C584E396E00E943F021D
:100FA000623071058105910508F078C5C9C56AE50B
:100FB00073E084E396E00E946616892B21F16AE2D1
:100FC00074E084E396E00E946616892B41F040911C
:100FD000FB0450E060E070E084E693E0D1CF69EB81
:100FE00072E084E396E00E946616892B09F456C5E8
:100FF00084E396E00E943F0262307105810591050D
:1010000008F04CC5A4C56FE673E084E396E00E9447
:101010006616892B21F16AE274E084E396E00E946F
:101020006616892B41F04091FA0450E060E070E0D0
:1010300088E793E0A5CF69EB72E084E396E00E9435
:101040006616892B09F42AC584E396E00E943F02C4
:10105000623071058105910508F020C57FC562E801
:1010600073E084E396E00E946616892B21F16AE220
:1010700074E084E396E00E946616892B41F040916B
:10108000F90450E060E070E08BE893E079CF69EB21
:1010900072E084E396E00E946616892B09F4FEC490
:1010A00084E396E00E943F0262307105810591055C
:1010B00008F0F4C45AC565E973E084E396E00E9441
:1010C0006616892B21F16AE274E084E396E00E94BF
:1010D0006616892B41F040910A0150E060E070E013
:1010E0008FE993E04DCF69EB72E084E396E00E94D4
:1010F0006616892B09F4D2C484E396E00E943F026D
:10110000623071058105910508F0C8C435C56AEAE9
:1011100073E084E396E00E946616892B39F16AE257
:1011200074E084E396E00E946616892B59F04091A2
:10113000F5045091F6046091F7047091F8048AEB7D
:1011400093E01ECF69EB72E084E396E00E9466169E
:10115000892B09F4A3C484E396E00E943F0267331D
:1011600079408105910508F40EC598C461ED73E0DE
:1011700084E396E00E946616892BD1F16AE274E05E
:1011800084E396E00E946616892B59F04091F104A1
:101190005091F2046091F3047091F4048FED93E0A8
:1011A000EFCE69EB72E084E396E00E946616892B2D
:1011B00009F474C4C090F504D090F604E090F704EC
:1011C000F090F8048FEFC81AD80AE80AF80A84E306
:1011D00096E00E943F026C157D058E059F0508F480
:1011E0005DC4683379408105910508F4D9C456C4BB
:1011F00064EF73E084E396E00E946616892B09F49D
:10120000FAC04091160150E060E070E08BEF93E08F
:101210000E94A2024091150150E060E070E08BEF67
:1012200093E00E94A2024091100150E060E070E063
:101230008BEF93E00E94A2024091FE045091FF04C4
:1012400060910005709101058BEF93E00E94A2026E
:1012500040910F0150E060E070E08BEF93E00E945E
:10126000A202409111015091120160E070E08BEFF9
:1012700093E00E94A2024091130150E060E070E010
:101280008BEF93E00E94A2024091140150E060E0D5
:1012900070E08BEF93E00E94A20240910E0150E0BB
:1012A00060E070E08BEF93E00E94A20240910D019C
:1012B00050E060E070E08BEF93E00E94A20240916A
:1012C0000B0150E060E070E08BEF93E00E94A2021F
:1012D0004091FB0450E060E070E08BEF93E00E94EF
:1012E000A2024091F90450E060E070E08BEF93E0DF
:1012F0000E94A20240910A0150E060E070E08BEF92
:1013000093E00E94A2024091F5045091F60460918E
:10131000F7047091F8048BEF93E00E94A2024091D1
:10132000F1045091F2046091F3047091F4048BEF96
:1013300093E00E94A20244E650E060E070E08BEF90
:1013400093E00E94A2026091980670E080E090E035
:101350000E94B11422E538EB4EE95CE30E9465156A
:1013600004E515E022E04AE00E941E16C8010E9432
:1013700024138BEF93E00E9424136091990670E090
:1013800080E090E00E94B11420E030E048EF5FE39D
:101390000E94651522E04AE00E941E16C8010E94C4
:1013A00024138BEF93E00E94241360919A0670E05F
:1013B00080E090E00E94B11422E538EB4EE95CE356
:1013C0000E94651522E04AE00E941E16C8010E9494
:1013D00024138BEF93E00E94241360919B0670E02E
:1013E00080E090E00E94B1142EEA37E441EE5DE324
:1013F0000E9465154CC36DEF73E084E396E00E9494
:101400006616892B09F4CFC282E094E00E9424136F
:101410008CE194E00E9424138AE094E00E9424135B
:101420008DE194E00E94241383E194E00E94241350
:101430008BE194E00E9424138FE194E00E94241336
:1014400089E291E00E9424138DEA92E00E94241325
:101450008CE194E00E94241388E294E00E9424131B
:101460008CE194E00E94241384E991E00E9424130B
:101470008BE194E00E9424138CE294E00E942413F8
:1014800089E291E00E9424138BEB92E00E942413E6
:101490008CE194E00E94241388E294E00E942413DB
:1014A0008CE194E00E94241384E991E00E942413CB
:1014B0008BE194E00E94241389E694E00E942413B7
:1014C00089E291E00E9424138BEC92E00E942413A5
:1014D0008CE194E00E94241388E294E00E9424139B
:1014E0008CE194E00E94241384E991E00E9424138B
:1014F0008BE194E00E94241389E694E00E94241377
:1015000089E291E00E9424138BED92E00E94241363
:101510008CE194E00E94241388E294E00E9424135A
:101520008CE194E00E94241384E991E00E9424134A
:101530008BE194E00E9424138FE294E00E94241334
:1015400089E291E00E94241380EF92E00E9424132C
:101550008CE194E00E94241388E294E00E9424131A
:101560008CE194E00E94241384E991E00E9424130A
:101570008BE194E00E94241385E694E00E942413FA
:1015800089E291E00E94241381E093E00E942413F9
:101590008CE194E00E94241388E294E00E942413DA
:1015A0008CE194E00E94241384E991E00E942413CA
:1015B0008BE194E00E9424138AE394E00E942413B8
:1015C00089E291E00E9424138BE093E00E942413AF
:1015D0008CE194E00E94241388E294E00E9424139A
:1015E0008CE194E00E94241384E991E00E9424138A
:1015F0008BE194E00E9424138FE394E00E94241373
:1016000089E291E00E94241387E193E00E94241371
:101610008CE194E00E94241388E294E00E94241359
:101620008CE194E00E94241384E991E00E94241349
:101630008BE194E00E94241382E494E00E9424133E
:1016400089E291E00E9424138FE193E00E94241329
:101650008CE194E00E94241388E294E00E94241319
:101660008CE194E00E94241384E991E00E94241309
:101670008BE194E00E94241385E694E00E942413F9
:1016800089E291E00E9424138FE293E00E942413E8
:101690008CE194E00E94241388E294E00E942413D9
:1016A0008CE194E00E94241384E991E00E942413C9
:1016B0008BE194E00E94241385E694E00E942413B9
:1016C00089E291E00E94241385E494E00E942413AF
:1016D0008DE194E00E94241388E294E00E94241398
:1016E0008CE194E00E94241384E991E00E94241389
:1016F0008BE194E00E94241385E694E00E94241379
:1017000089E291E00E9424138FE493E00E94241365
:101710008DE194E00E94241388E294E00E94241357
:101720008CE194E00E94241384E991E00E94241348
:101730008BE194E00E94241385E694E00E94241338
:1017400089E291E00E9424138AE593E00E94241329
:101750008DE194E00E94241388E294E00E94241317
:101760008CE194E00E94241384E991E00E94241308
:101770008BE194E00E94241385E694E00E942413F8
:1017800089E291E00E9424138FE693E00E942413E3
:101790008DE194E00E94241388E294E00E942413D7
:1017A0008CE194E00E94241384E991E00E942413C8
:1017B0008BE194E00E94241385E694E00E942413B8
:1017C00089E291E00E94241382E893E00E942413AE
:1017D0008DE194E00E94241388E294E00E94241397
:1017E0008CE194E00E94241384E991E00E94241388
:1017F0008BE194E00E94241385E694E00E94241378
:1018000089E291E00E94241385E993E00E94241369
:101810008DE194E00E94241388E294E00E94241356
:101820008CE194E00E94241384E991E00E94241347
:101830008BE194E00E94241385E694E00E94241337
:1018400089E291E00E9424138AEA93E00E94241323
:101850008DE194E00E94241388E294E00E94241316
:101860008CE194E00E94241384E991E00E94241307
:101870008BE194E00E9424138EE494E00E942413F0
:1018800089E291E00E94241381ED93E00E942413E9
:101890008DE194E00E94241388E294E00E942413D6
:1018A0008CE194E00E94241383E594E00E942413C9
:1018B0008DE194E00E94241387E694E00E942413B3
:1018C00089E291E00E94241384EF93E00E942413A4
:1018D0008CE194E00E9424138CE694E00E9424138F
:1018E00089E291E00E94241384E794E00E9424138B
:1018F0008DE194E00E9424138CE694E00E9424136E
:1019000089E291E00E94241380E894E00E9424136D
:101910008CE194E00E9424138CE694E00E9424134E
:1019200089E291E00E94241385E894E00E94241348
:101930008CE194E00E9424138CE694E00E9424132E
:1019400089E291E00E9424138BE894E00E94241322
:101950008DE194E00E9424138CE694E00E9424130D
:1019600089E291E00E94241386E994E00E94241306
:101970008DE194E00E9424138CE694E00E942413ED
:1019800089E291E00E94241382EA94E00E942413E9
:101990008DE194E00E9424138CE694E00E942413CD
:1019A00089E291E079C064E774E084E396E00E9404
:1019B0006616892B29F00E945B058EEA94E06CC0C4
:1019C00060E874E084E396E00E949D16892BA9F0FC
:1019D00086EC94E00E94241389E291E00E94241393
:1019E0008DEC94E00E9424134AE050E064E575E039
:1019F00084E690E00E94B7164FC065E874E084E387
:101A000096E00E949D16892B19F0609198061EC0E1
:101A10006BE874E084E396E00E949D16892B61F0E8
:101A20006091990670E080E090E00E94B11420E09F
:101A300030E048EF5FE327C066E974E084E396E0B6
:101A40000E949D16892B61F060919A0670E080E0FB
:101A500090E00E94B11422E538EB4EE95CE313C03C
:101A600062EA74E084E396E00E949D16892BB1F04F
:101A700060919B0670E080E090E00E94B1142EEA35
:101A800037E441EE5DE30E94651504E515E022E0D0
:101A90004AE00E941E16C8010E94241389E291E0C8
:101AA0001F910F91FF90EF90DF90CF900C94241333
:101AB00084E396E00E943F0260931601EFCF84E337
:101AC00096E00E943F0260931501E8CF84E396E020
:101AD0000E943F0260931001E1CF84E396E00E94F0
:101AE0003F0260930F01DACF84E396E00E943F0249
:101AF0007093120160931101D1CF84E396E00E94AC
:101B00003F0260931301CACF84E396E00E943F0234
:101B100060931401C3CF84E396E00E943F02609378
:101B20000E01BCCF84E396E00E943F0260930D015A
:101B3000B5CF84E396E00E943F0260930C01AECFE4
:101B400084E396E00E943F0260930B01A7CF84E3F9
:101B500096E00E943F026093FB04A0CF84E396E0EE
:101B60000E943F026093FA0499CF84E396E00E94BA
:101B70003F026093F90492CF84E396E00E943F0213
:101B800060930A018BCF84E396E00E943F0260934A
:101B9000F5047093F6048093F7049093F8047ECFD5
:101BA00084E396E00E943F026093F1047093F20494
:101BB0008093F3049093F40471CFCF93DF930E944A
:101BC000F412EC0190FD33C093FF04C088E690E06E
:101BD0000E943013D2FF04C08BE790E00E943013C4
:101BE000D1FF04C080E990E00E9430138091040589
:101BF000DC2FE82FF0E0E854FA4FC083CD3059F4E1
:101C00001092040589E291E00E9424130E9463026D
:101C10000E94B50503C08F5F8093040580910D017C
:101C2000882329F08D2FDF91CF910C940F13DF9132
:101C3000CF9108959091980681E0933308F480E065
:101C400008951F920F920FB60F9211242F933F9376
:101C50004F935F936F937F938F939F93AF93BF93B4
:101C6000EF93FF9320910705309108052F5F3F4FB9
:101C700030930805209307058091090590910A0586
:101C8000A0910B05B0910C050196A11DB11D80938B
:101C9000090590930A05A0930B05B0930C05283E07
:101CA000334000F180910C01811106C08091100138
:101CB0008F5F8093100104C00E941A0E8823B1F335
:101CC000109208051092070580910A0181110E9467
:101CD000270280910D0590910E05019690930E05B7
:101CE00080930D0580910D0590910E05CC9798F08D
:101CF0008091EA049091EB049093E9048093E804C6
:101D00001092EB041092EA0481E08093E3041092B5
:101D10000E0510920D058091FE049091FF04A09194
:101D20000005B0910105892B8A2B8B2B09F44AC041
:101D300020910B018091090590910A05A0910B0556
:101D4000B0910C054091FE045091FF046091000594
:101D500070910105213079F484179507A607B7071C
:101D600088F120910705309108052230310550F1A6
:101D7000215031090FC084179507A607B70710F146
:101D80002091070530910805273E43E03407D0F441
:101D90002F5F3F4F30930805209307054091FE04C5
:101DA0005091FF046091000570910105841B950B13
:101DB000A60BB70B8093090590930A05A0930B051A
:101DC000B0930C050E944404FF91EF91BF91AF9135
:101DD0009F918F917F916F915F914F913F912F9143
:101DE0000F900FBE0F901F901895882321F084B597
:101DF000806884BD089584B58F7784BD5E9808950A
:101E00000F931F930E941A0E811105C080E01F914D
:101E10000F910C94F50E4091F5045091F6046091E9
:101E2000F7047091F804411551056105710559F1E8
:101E3000209116018091150190E034E6239F800DDA
:101E4000911D11240091F1041091F2042091F304EA
:101E50003091F404AA2797FDA095BA2F041715070F
:101E60002607370730F084179507A607B70758F0FD
:101E700005C084179507A607B70740F68017910796
:101E8000A207B30718F284B5806884BD1F910F9133
:101E900008958091E3048823C1F16091E804709172
:101EA000E90480E090E00E94AF1420E030E041E6D9
:101EB00055E40E941B1420E030E040E752E40E9409
:101EC0006515AB01BC014093E4045093E5046093B5
:101ED000E6047093E7046091E4047091E504809156
:101EE000E6049091E70420E030E040E05FE30E94E8
:101EF0006515AB01BC014093E4045093E504609385
:101F0000E6047093E7041092E30408955C9A5C98E9
:101F100008955D9A5D9808950F931F93CF93DF9373
:101F20005D98C7E0D0E0082F10E0C8010C2E02C079
:101F3000959587950A94E2F780FF02C05B9A01C0ED
:101F40005B980E94860F219780F75D9ADF91CF9171
:101F50001F910F910895843081F148F48130D9F0B8
:101F6000A0F08230F1F0833009F04CC020C08730FF
:101F7000B1F130F4853039F1863009F043C029C021
:101F8000883099F18930F1F536C0662311F080E18F
:101F900037C080E035C0662311F081E131C081E0B7
:101FA0002FC0662311F082E12BC082E029C0662396
:101FB00011F083E125C083E023C0662311F084E1A2
:101FC0001FC084E01DC0662311F085E119C085E0C3
:101FD00017C0662311F086E113C086E011C06623A6
:101FE00011F087E10DC087E00BC0662311F088E196
:101FF00007C088E005C0662311F089E101C089E0CF
:102000000C948C0F08953F924F925F926F927F9243
:102010008F929F92AF92BF92CF92DF92EF92FF92F8
:102020000F931F93CF93DF9310E06C01E12CF12C01
:10203000C9E9D1E07BC061E0812F0E94AB0F81E054
:10204000A81AB108C1F70E94890FC701B6010E9402
:10205000AF144B015C0120E030E040E855E40E9401
:102060006515762E672E582E492E20E030E040E888
:102070005FE3D301F2016B2F7A2F8F2F9E2F0E94E7
:10208000171487FD2BC020E03FEF4FE757E4D30143
:10209000F2016B2F7A2F8F2F9E2F0E946115181639
:1020A000A4F420E030E040E251E4C501B4010E9414
:1020B00065150E94831405C0CE010197F1F76150A8
:1020C000710961157105C1F70EC0A3019201652F59
:1020D000742F832F922F0E94831402C061E070E05E
:1020E000CB010197F1F71F5F1A3001F5A3019201AF
:1020F000652F762D832F942D0E9483148B0120E071
:1021000030E040E85FE3D301F2016B2F762D8F2F93
:10211000942D0E94171487FF03C0C1E0D0E001C0D6
:10212000E80138E0332E09E911E043C026E0A22E91
:10213000B12C81CF61E0832D0E94AB0F81E0E81AC2
:10214000F108C1F70E94890F20E030E040E85FE32A
:10215000D301F2016B2F762D8F2F942D0E9417142F
:1021600087FD22C020E03FEF4FE757E4D301F201A3
:102170006B2F762D8F2F942D0E9461151816A4F4C5
:1021800020E030E040E251E4C501B4010E94651551
:102190000E94831405C0C8010197F1F761507109CD
:1021A00061157105C1F703C0CE010197F1F73A94AB
:1021B00021F096E0E92EF12CBDCFDF91CF911F9158
:1021C0000F91FF90EF90DF90CF90BF90AF909F90D6
:1021D0008F907F906F905F904F903F900895809187
:1021E00015018E3111F081113AC08091E2048130E5
:1021F000B1F58AEF90E00E94031081EE90E00E941A
:10220000031088EC90E00E9403108FEA90E00E9497
:10221000031086E990E00E9403108DE790E00E9491
:10222000031084E690E00E9403108BE490E00E948B
:10223000031082E390E00E94031089E190E00E9485
:1022400003108AE090E00E9403108AE090E00E9470
:10225000031085E090E00E9403101092E2040895BC
:10226000CF92DF92EF92FF921F93CF93DF93C090B4
:102270000201D0900301E0900401F0900501D1E04B
:1022800020E030E0A901C701B6010E94611587FD79
:10229000D0E0C1E0CD2720E030E0A901C701B601C0
:1022A0000E94171487FF04C0F7FAF094F7F8F0942F
:1022B00080910E01811112C026E636E646EE5FE3FC
:1022C000C701B6010E94651520E030E040E052E40D
:1022D0000E94B313C62ED72EE82EF92EC701B601E1
:1022E0000E948314D62F70E080E090E00E94B11429
:1022F0009B01AC01C701B6010E94B21320E030E09F
:1023000048EC52E40E9465150E948314862F1AE05F
:10231000612F0E94C815F82E892F60E00E94AB0F34
:1023200061E08F2D0E94AB0F8D2F612F0E94C81589
:10233000D82F892F60E00E94AB0F8D2F612F0E9454
:10234000C815D82F892F60E00E94AB0F8D2F612F09
:102350000E94C815892F60E00E94AB0F60E08C2FAF
:10236000DF91CF911F91FF90EF90DF90CF900C9471
:10237000AB0F1F93CF93DF93882331F0809110012F
:1023800080958170C82F02C0C1E0D0E0209110017B
:10239000822F6AE00E94C815182F863008F010E0DE
:1023A000DAE0822F6D2F0E94C815892F60E00E940D
:1023B000AB0F6C2F812F0E94AB0F809115016D2FF9
:1023C0000E94C815D82F892F60E00E94AB0F6C2F98
:1023D0008D2F0E94AB0F8091160190910F019111EA
:1023E00003C08D3008F08C506AE00E94C815C82FD9
:1023F000892F60E00E94AB0F60E08C2FDF91CF91BE
:102400001F910C94AB0F0F931F93CF93DF93809189
:102410001401CAE06C2F0E94C815D82F892F60E0E4
:102420000E94AB0F61E08D2F0E94AB0F80911301D2
:102430006C2F0E94C815C82F892F60E00E94AB0F37
:1024400061E08C2F0E94AB0F8091110190911201DD
:10245000CAE0D0E0BE010E94D4158B0160E00E946A
:10246000AB0FC801BE010E94D41560E0DF91CF918F
:102470001F910F910C94AB0FAF92BF92CF92DF924E
:10248000EF92FF920F931F93CF93DF936091E40439
:102490007091E5048091E6049091E70420E030E03B
:1024A0004AE754E40E9465150E948314B62EA72EB5
:1024B000182F092FC0E0D0E04AE0C42ED12CE12C27
:1024C000F12C6B2D7A2D812F902FA70196010E9460
:1024D000FC15862FB22EA32E142F052F61E0C230DB
:1024E000D10509F060E00E94AB0F2196C530D105FF
:1024F00041F780E0DF91CF911F910F91FF90EF9016
:10250000DF90CF90BF90AF900C948C0F1F920F92E2
:102510000FB60F9211242F938F939F93EF93FF93F6
:102520008091C0009091C6008871E0911105EF5F25
:10253000EF7120911005E21739F0E0931105F0E0FA
:10254000EC5EFA4F908301C082E080930F05FF910B
:10255000EF919F918F912F910F900FBE0F901F9031
:1025600018951F920F920FB60F9211248F939F937D
:10257000EF93FF939091130580911205981769F0DE
:10258000E0911205EF5FEF71E0931205F0E0EC5C73
:10259000FA4F80818093C60005C08091C1008F7D75
:1025A0008093C100FF91EF919F918F910F900FBE8B
:1025B0000F901F901895109213051092120510920B
:1025C00011051092100597FF04C022E02093C0006F
:1025D0009F779093C5008093C40088E98093C100E1
:1025E00086E08093C20008959091110580911005B6
:1025F000981789F0E0911005EF5FEF71E0931005F7
:10260000F0E0EC5EFA4F808190910F05392F20E0C9
:10261000280F311D02C020E031E0C90108959091DA
:1026200013059F5F9F71209112059217E1F3E92F27
:10263000F0E0EC5CFA4F8083909313058091C10029
:1026400080628093C1000895CF93DF93EC0102C0B4
:102650000E940F1389918111FBCFDF91CF910895D3
:10266000CF93DF93EC0102C00E940F13FE0121966D
:1026700084918111F9CFDF91CF910895F8940E9450
:102680009A010E94BE010E94CA010E94AE010E94EE
:1026900006030E94A8010E94000578940E94BE02D1
:1026A000C9E9D1E00E94490F84E10E9453040E94CD
:1026B000000F0E94DD0D0E94950390911001809102
:1026C000FD04981739F081E00E94B9118091100142
:1026D0008093FD04909115018091FC04981709F4F2
:1026E0003EC081E08093E2040E940A030E94B70486
:1026F0000E94E80489E291E00E9424138091F90489
:10270000811105C08091FB04882359F00FC00E94FD
:10271000031280E593ECFE013197F1F70197D9F7A9
:10272000F1CF8091FA04882359F00FC00E94301134
:1027300080E593ECFE013197F1F70197D9F7F1CFDE
:10274000809115018093FC040AC00E943C1280E530
:1027500093ECFE013197F1F70197D9F7F1CF0E9481
:10276000EF10A0CF5058BB27AA270ED070C161D15F
:1027700030F066D120F031F49F3F11F41EF456C1C1
:102780000EF4E095E7FB4CC1E92F72D180F3BA1744
:10279000620773078407950718F071F49EF58AC1E4
:1027A0000EF4E0950B2EBA2FA02D0B01B90190016C
:1027B0000C01CA01A0011124FF27591B99F0593FB0
:1027C00050F4503E68F11A16F040A22F232F342FF8
:1027D0004427585FF3CF469537952795A795F04046
:1027E0005395C9F77EF41F16BA0B620B730B840B5B
:1027F000BAF09150A1F0FF0FBB1F661F771F881F13
:10280000C2F70EC0BA0F621F731F841F48F487956A
:1028100077956795B795F7959E3F08F0B3CF939559
:10282000880F08F09927EE0F979587950895D4D0D3
:1028300008F481E008950CD00AC102D140F0F9D02B
:1028400030F021F45F3F19F0EBC0511134C1EEC0FC
:102850000FD198F39923C9F35523B1F3951B550B69
:10286000BB27AA2762177307840738F09F5F5F4F63
:10287000220F331F441FAA1FA9F333D00E2E3AF0A4
:10288000E0E830D091505040E695001CCAF729D0BE
:10289000FE2F27D0660F771F881FBB1F261737070D
:1028A0004807AB07B0E809F0BB0B802DBF01FF273D
:1028B00093585F4F2AF09E3F510568F0B1C0FBC0AE
:1028C0005F3FECF3983EDCF3869577956795B79577
:1028D000F7959F5FC9F7880F911D9695879597F992
:1028E0000895E1E0660F771F881FBB1F621773070B
:1028F0008407BA0720F0621B730B840BBA0BEE1F20
:1029000088F7E0950895BCD088F09F5790F0B92FD4
:102910009927B751A0F0D1F0660F771F881F991F34
:102920001AF0BA95C9F712C0B13081F0C3D0B1E046
:102930000895C0C0672F782F8827B85F39F0B93F56
:10294000CCF3869577956795B395D9F73EF4909536
:102950008095709561957F4F8F4F9F4F0895E894B4
:1029600009C097FB3EF490958095709561957F4FD7
:102970008F4F9F4F9923A9F0F92F96E9BB27939585
:10298000F695879577956795B795F111F8CFFAF495
:10299000BB0F11F460FF1BC06F5F7F4F8F4F9F4FC6
:1029A00016C0882311F096E911C0772321F09EE824
:1029B000872F762F05C0662371F096E8862F70E08A
:1029C00060E02AF09A95660F771F881FDAF7880F64
:1029D0009695879597F90895990F0008550FAA0BBA
:1029E000E0E8FEEF16161706E807F907C0F0121622
:1029F0001306E407F50798F0621B730B840B950B25
:102A000039F40A2661F0232B242B252B21F4089579
:102A10000A2609F4A140A6958FEF811D811D089516
:102A200097F99F6780E870E060E008959FEF80EC81
:102A3000089500240A941616170618060906089524
:102A400000240A9412161306140605060895092E8A
:102A50000394000C11F4882352F0BB0F40F4BF2BF9
:102A600011F460FF04C06F5F7F4F8F4F9F4F089539
:102A700057FD9058440F551F59F05F3F71F047952F
:102A8000880F97FB991F61F09F3F79F08795089514
:102A9000121613061406551FF2CF4695F1DF08C033
:102AA000161617061806991FF1CF86957105610550
:102AB00008940895E894BB2766277727CB0197F9F8
:102AC00008958ADF08F48FEF08950BD0C0CFB1DFEF
:102AD00028F0B6DF18F0952309F0A2CFA7CF112474
:102AE000EACFC6DFA0F3959FD1F3950F50E0551FB5
:102AF000629FF001729FBB27F00DB11D639FAA2753
:102B0000F00DB11DAA1F649F6627B00DA11D661FA1
:102B1000829F2227B00DA11D621F739FB00DA11DC2
:102B2000621F839FA00D611D221F749F3327A00D7C
:102B3000611D231F849F600D211D822F762F6A2F18
:102B400011249F5750408AF0E1F088234AF0EE0F9D
:102B5000FF1FBB1F661F771F881F91505040A9F7AA
:102B60009E3F510570F05CCFA6CF5F3FECF3983EDF
:102B7000DCF3869577956795B795F795E7959F5F11
:102B8000C1F7FE2B880F911D9695879597F90895AB
:102B9000991B79E004C0991F961708F0961B881FAF
:102BA0007A95C9F780950895AA1BBB1B51E107C010
:102BB000AA1FBB1FA617B70710F0A61BB70B881FCD
:102BC000991F5A95A9F780959095BC01CD0108955C
:102BD00097FB072E16F4009407D077FD09D00E94CA
:102BE000D41507FC05D03EF4909581959F4F08952C
:102BF000709561957F4F0895A1E21A2EAA1BBB1B09
:102C0000FD010DC0AA1FBB1FEE1FFF1FA217B307B8
:102C1000E407F50720F0A21BB30BE40BF50B661FCE
:102C2000771F881F991F1A9469F760957095809592
:102C300090959B01AC01BD01CF010895EF920F93D8
:102C40001F93CF93C02F47FF02C034E101C034E08F
:102C5000E42FFF27E7FDF095F7FF03C0F195E1951D
:102C6000F109E32E022F2E2F4C2F512F0E943E17D9
:102C70008C2F912FCF911F910F91EF9008951F935B
:102C8000FC0199278827BC01E89411911032E9F3DF
:102C9000193010F01E30C8F31B3251F01D3249F4C8
:102CA000689406C00E94D816610F711D811D911D88
:102CB000119110531A30B0F33EF4909580957095B1
:102CC00061957F4F8F4F9F4F1F910895FB01519149
:102CD0005523B1F0BF01DC01052E4D91442369F06D
:102CE00010D0D9F7CD010190002049F04D9141114C
:102CF00008D0C9F3FB014111EECF81E090E00197CC
:102D00000895402539F0403229F440294B57465E5A
:102D100008F018940895FC018191861721F088230A
:102D2000D9F7992708953197CF010895FB01DC0168
:102D300001900D920020E1F70895FB015191552378
:102D4000A9F0BF01DC014D9145174111E1F759F49C
:102D5000CD010190002049F04D9140154111C9F37A
:102D6000FB014111EFCF81E090E001970895FB0155
:102D70009F01E8944230C4F04532B4F44A3029F45B
:102D800097FB1EF4909581959F4F642F77270E94A3
:102D9000D415805D8A330CF0895D8193CB01009757
:102DA000A1F716F45DE251931082C9010C949319B6
:102DB000592F482F372F262F660F771F881F991FEF
:102DC000660F771F881F991F620F731F841F951F3F
:102DD000660F771F881F991F0895FA01CF93FF93FD
:102DE000EF932230CCF02532BCF4C22F2C2F3327A6
:102DF00044275527FF93EF930E94FC15EF91FF9115
:102E0000605D6A330CF0695D6193B901CA0160507D
:102E100070408040904051F710828F919F91CF91E8
:102E20000C949319F999FECF92BD81BDF89A992718
:102E300080B50895A6E1B0E044E050E00C94A519F7
:102E4000262FF999FECF92BD81BDF89A019700B463
:102E5000021639F01FBA20BD0FB6F894FA9AF99A03
:102E60000FBE08950396272F0E9421170E94201756
:102E7000252F0E942117242F0C9421176F927F92E7
:102E80009F92AF92BF92CF92DF92EF92FF920F93F9
:102E90001F93CF93DF93CDB7DEB729970FB6F89482
:102EA000DEBF0FBECDBF6A01B22E102F0C3318F457
:102EB000F02EF39402C05CE3F52E0F2D27E0AE0157
:102EC0004F5F5F4F0E94BB187981272F29702130F7
:102ED00031F0E1FC06C0E0FE06C060E205C06DE234
:102EE00003C06BE201C060E073FF3DC0662311F0D8
:102EF00084E001C083E08B1510F4B81A01C0B12C36
:102F0000E4FC0BC08B2DF60190E202C0919381503E
:102F10008111FCCFCB0CD11CB12C662319F0D6014A
:102F20006D936D01E2FE0AC08EE4F601808391E4A8
:102F300091838283F3E0CF0ED11C0CC08EE6D601C4
:102F40008C9391E611969C93119712968C93B3E013
:102F5000CB0ED11C8B2DF60190E202C091938150D3
:102F60008111FCCF40C072FF45C0662311F084E0A0
:102F700001C083E08B1510F4B81A01C0B12CE4FC39
:102F80000BC08B2DF60190E202C09193815081110C
:102F9000FCCFCB0CD11CB12C662319F0F601619348
:102FA0006F01E2FE0EC089E4D6018C938EE4119687
:102FB0008C93119786E412968C93B3E0CB0ED11CC0
:102FC0000AC089E6F60180838EE6818386E68283E5
:102FD000F3E0CF0ED11C8B2DF60190E202C091934D
:102FE00081508111FCCFF601EB0DF11D10822EEF07
:102FF0003FEFACC0A1E0611101C0A0E04A2F50E05A
:103000001816190624F49C012F5F3F4F02C021E0DF
:1030100030E0240F351F112329F0412F50E04F5F7E
:103020005F4F02C040E050E0420F531F2B2D30E0B5
:103030004217530714F4B41A01C0B12C3E2D30715D
:10304000E4FC0DC0E3FC0BC02B2DF60140E202C0F6
:10305000419321502111FCCFCB0CD11CB12CAA23C0
:1030600019F0D6016D936D0131110BC02B2DF601B6
:1030700030E302C0319321502111FCCFCB0CD11C85
:10308000B12CF80E0A8140E1A42EA72274FF03C0E0
:10309000013309F4FA941F142CF42F2D293018F061
:1030A00028E001C021E0AC0197FF02C040E050E001
:1030B00060E070E03EE2932EFC01E21BF1099F010B
:1030C000DC01A41BB50BFE013196EA0FFB1FA12FFB
:1030D000B0E0662477246A1A7B0A4F3F1FEF51073E
:1030E00019F4D6019D926D018417950754F02417A9
:1030F00035073CF47F01E60EF71ED70111961C91AF
:1031000001C010E3415051096F5F7F4F46155705CD
:1031100024F0D6011D936D01E0CF4817590739F40B
:10312000063320F4053319F4A11001C011E3F601B0
:1031300011938B2DDF0190E202C09D93815081118C
:10314000FCCFEB0DF11D108220E030E0C901299683
:103150000FB6F894DEBF0FBECDBFDF91CF911F91A8
:103160000F91FF90EF90DF90CF90BF90AF909F9026
:103170007F906F900895283008F027E03327DA0118
:10318000990F311D87FD916000966105710539F435
:1031900032602E5F3D9330E32A95E1F708959F3F1B
:1031A00030F080387105610509F03C5F3C5F3D936C
:1031B000913008F08068911DDF93CF931F930F9398
:1031C000FF92EF92192F987F9695E92F96959695F5
:1031D000E90FFF27EE5FFE4F99273327EE24FF24E8
:1031E000A701E70105900894079428F4360FE71E1D
:1031F000F81E491F511D660F771F881F991F0694DF
:10320000A1F70590079428F4E70EF81E491F561FF2
:10321000C11D770F881F991F661F0694A1F705909F
:10322000079428F4F80E491F561FC71FD11D880F99
:10323000991F661F771F0694A1F70590079420F445
:10324000490F561FC71FD81F990F661F771F881F6A
:103250000694A9F784911095177041F0D695C795FB
:1032600057954795F794E7941A95C1F7E8EAF0E087
:1032700068941590159135916591959105907FE22F
:103280007395E118F10A430B560BC90BD009C0F72F
:10329000E10CF11E431F561FC91FD01D7EF4703371
:1032A00011F48A95E6CFE894015030F0080F0AF443
:1032B0000027021708F4202F2395022F7A3328F0D5
:1032C00079E37D932A95E9F710C07D932A9589F6D5
:1032D000069497956795379517951794E118F10A15
:1032E000430B560BC90BD00998F023957E9173952B
:1032F0007A3308F070E37C932013B8F77E91706105
:103300007D9330F0839571E37D9370E32A95E1F727
:103310001124EF90FF900F911F91CF91DF9199278A
:1033200087FD90950895DC01FC01672F719177234B
:10333000E1F7329704C07C916D9370836291AE1770
:10334000BF07C8F30895DC01CB01FC01F999FECF5A
:1033500006C0F2BDE1BDF89A319600B40D9241501D
:0A3360005040B8F70895F894FFCF2D
:10336A001E500000C6420000C642010101010101CF
:10337A001EDF0702010A0A001F1C1F1E1F1E1F1F35
:10338A001E1F1E1F64004F4B000D0A002F2F7E7E4A
:10339A007E7E7E7E7E7E7E7E7E7E2A2A2A2A2A2A3B
:1033AA002A2A2A2A2A2A204E6978696520436C6FBC
:1033BA00636B20496E737472756374696F6E7320E0
:1033CA002A2A2A2A2A2A2A2A2A2A2A2A7E7E7E7E03
:1033DA007E7E7E7E7E7E7E7E7E7E0041544D656749
:1033EA0061333238204E6978696520436C6F636BAC
:1033FA002076312E3000436865636B2070657465F2
:10340A006D696C6C732E626C6F6773706F742E6368
:10341A006F6D20666F72206D6F726520696E666FC0
:10342A00005573616765204578616D706C653A0077
:10343A00547970652027484F5552533D3130272023
:10344A00746F207365742074686520686F75727371
:10345A0020746F20273130272E0054797065202779
:10346A004D494E555445533D32362720746F2073CB
:10347A00657420746865206D696E7574657320744F
:10348A006F20273236272E004675727468657220BF
:10349A00706172616D65746572206E616D6573200D
:1034AA0063616E20626520666F756E6420696E20A6
:1034BA007468652075736572206D616E75616C2E16
:1034CA00005669736974207468652055524C2061EE
:1034DA00626F766520746F20646F776E6C6F6164BB
:1034EA00206120636C6F636B2063616C6962726137
:1034FA0074696F6E2061707020616E6420757365E7
:10350A0072206D616E75616C2E002C2000686F75DB
:10351A00727300486F757273003D006D696E757441
:10352A006573004D696E75746573007365636F6EBC
:10353A006473005365636F6E6473006D7363616CCB
:10354A00006D532043616C6962726174696F6E0029
:10355A006D696C74696D65004D494C2054696D65DF
:10356A0000796561720059656172006D6F6E7468E9
:10357A00004D6F6E7468006461790044617900637C
:10358A00656C736975730043656C73697573006460
:10359A006F6563686F00446F204563686F006163FD
:1035AA00636C6F636B00414320436C6F636B0078FD
:1035BA0074616C6973666173740073686F77746899
:1035CA0065726D0053686F7720546865726D007379
:1035DA00686F77667265710053686F772046726507
:1035EA00710073686F77646174650053686F772040
:1035FA004461746500746F67676C656C6564005438
:10360A006F67676C65204C4544006E69786965731D
:10361A006C6565707374617274004E6978696520AF
:10362A00536C6565702053746172742054696D65BA
:10363A00006E69786965736C656570656E64004EC5
:10364A006978696520536C65657020456E642054FD
:10365A00696D6500676574616C6C002C0068656C47
:10366A007000436F6D6D616E64005365742F52650F
:10367A006164004C6F77204C696D000909090048A4
:10368A00696768204C696D003D2F3F003233003472
:10369A00323934393637323935003235323500313C
:1036AA003200333100616363636C6F636B003233E2
:1036BA003538006E69786965736C65657073746115
:1036CA007274202B20310032333539005B454E5459
:1036DA0045525D0072616D746F656570726F6D0041
:1036EA00706F6B65007077726F6B006876666565E0
:1036FA00646261636B0062617474766F6C74616793
:10370A00650072656374696669656461630045454D
:10371A0050524F4D2053746F7261676520436F6D2D
:10372A00706C6574650048656C6C6F210049276D83
:10373A002053657269616C204E756D6265723A201C
:02374A0000007D
:00000001FF
